:03000000020006F5
:03005F0002000399
:0300030002008B6D
:100062007E007F007C0A7D00EC24FFFAED34FFFB6A
:100072008A048B05EA4B70F00EBE00010FC3EE94AA
:1000820010EF648094A740DC2275B000D2B0120059
:0800920062C2B012006280F4AA
:06003500E478FFF6D8FD9F
:100013007900E94400601B7A0090009E780175A086
:1000230000E493F2A308B8000205A0D9F4DAF2754C
:02003300A0FF2C
:10003B007800E84400600A790175A000E4F309D860
:10004B00FC7800E84400600C7900900001E4F0A318
:04005B00D8FCD9FAFA
:0D00060075810712009AE582600302000375
:04009A007582002249
:00000001FF
