:03000000020006F5
:09005F0075080075090002000398
:03000300020345B0
:10006800AE82AF83EE4F60071EBEFF011F80F522F0
:10007800AE82AF83EE4F6015900070C007C00612C5
:100088000068D006D0071EBEFF011F80E722AF829E
:10009800EF600D9003E8C007120078D0071F80F0CA
:1000A80022AE82AF83438901AD8974FD5DF589EE87
:1000B8004F6016C28CC28D758C9E758A58D28C3052
:1000C8008DFD1EBEFF011F80E622AE82AF83AD8983
:1000D80074FE5DF589438902C28CC28D758AE77505
:1000E8008CE7D28CEE4F600C108D0280FB1EBEFF99
:1000F800011F80F022D2A3A20192A0A201B392A173
:10010800A20092A200000000D2A40000000000009B
:10011800000085B08200000000C2A40000000000BA
:100128000000000000000022AF82C200A20392017A
:10013800C0071200FDE582D00720E7EEC2A3A203A4
:1001480092A0A203B392A1A20292A28FB0000000D3
:1001580000D2A4000000000000000000000000C25F
:10016800A475B0FF000000000000000000000000BF
:1001780022C2A4D2A5D2A0D2A175B0FFC200C201EA
:100188001200FDE58220E4F4C200D2011200FDE570
:100198008220E4F4C202C20375823F120130C20217
:1001A800D20375823F120130C202C2037582401227
:1001B8000130C202D203758240120130C202C2036A
:1001C8007582B8120130C202D2037582B8120130AA
:1001D800C202C2037582C0120130C202D203758204
:1001E800C0020130AF8253073F74404FF582C2020C
:1001F800A2049203020130AF8253070774B84FF587
:1002080082C202A20592030201307E007F008E8224
:10021800A2069205C007C0061201FFA20692047545
:1002280082001201ECD006D0077C007D00D202A229
:10023800069203758200C007C006C005C0041201FB
:1002480030D004D005D006D0070CBC00010DC3EC9B
:100258009440ED940040D60EBE00010FC3EE940802
:10026800EF940040A922D202A207920375820012DD
:100278000130D202A2079203758200120130D20225
:10028800A2079203758200020130AF82C3EF648037
:100298009489502AEF14FEC2058E82C0061201FF0F
:1002A800D006D2058E821201FFC2047582001201A7
:1002B800ECD2047582001201EC750800806D7D0097
:1002C8007E00EFFB3395E0FCEB24E0F511EC34FF06
:1002D800F512900005C007C006C0051208B7AB822A
:1002E800AC83D005D006EB24F4FBEC3408FCED2BF2
:1002F800F582EE3CF583E493FCE50924FF9203D2F2
:10030800028C82C006C005120130D005D006D00785
:100318000DBD00010EC3ED9405EE6480948040A2EB
:10032800E50924FF920712026E05087408B5080C47
:10033800E509B40100E433F50975080022120179D2
:10034800C206120212D20612021274D4C0E0740A53
:10035800C0E01203F31581158174E6C0E0740AC089
:10036800E01203F31581158174F8C0E0740AC0E047
:100378001203F315811581740AC0E0740BC0E012F2
:1003880003F315811581741CC0E0740BC0E01203DF
:10039800F315811581742EC0E0740BC0E01203F3CD
:1003A800158115817440C0E0740BC0E01203F31589
:1003B8008115817452C0E0740BC0E01203F31581FB
:1003C80015819003E812007874D1C0E07422C0E06F
:1003D80074F7C0E07442C0E07464C0E0740BC0E01D
:0B03E8001203F3E58124FAF58180FE8A
:1008F400000000000000005F000000070007001473
:100904007F147F14242A7F2A122313086462364931
:100914005522500005030000001C22410000412222
:100924001C00082A1C2A0808083E08080050300049
:1009340000080808080800303000002010080402ED
:100944003E5149453E00427F4000426151494621A3
:1009540041454B311814127F1027454545393C4A0F
:10096400494930017109050336494949360649495F
:10097400291E0036360000005636000000081422F6
:1009840041141414141441221408000201510906DC
:10099400324979413E7E1111117E7F494949363EE3
:1009A400414141227F4141221C7F494949417F09FC
:1009B4000901013E414151327F0808087F00417F0F
:1009C40041002040413F017F081422417F404040C4
:1009D400407F0204027F7F0408107F3E4141413E74
:1009E4007F090909063E4151215E7F0919294646BE
:1009F4004949493101017F01013F4040403F1F20E7
:100A040040201F7F2018207F631408146303047898
:100A14000403615149454300007F41410204081029
:100A24002041417F00000402010204404040404054
:100A3400000102040020545454787F484444383858
:100A440044444420384444487F3854545418087E5D
:100A5400090102081454543C7F0804047800447DBE
:100A640040002040443D00007F10284400417F4066
:100A7400007C041804787C0804047838444444381E
:100A84007C14141408081414187C7C080404084802
:100A940054545420043F4440203C4040207C1C20BB
:100AA40040201C3C4030403C44281028440C50500A
:100AB400503C4464544C44000836410000007F001C
:100AC40000004136080008082A1C08081C2A0808E7
:100AD400016C696E686120312020202020202020B4
:100AE4003E0002206C696E686120322020202020A4
:100AF40020203E000320206C696E68612033202092
:100B0400202020203E00042020206C696E68612093
:100B14003420202020203E0005202020206C696EF7
:100B240068612035202020203E000620202020203F
:100B34006C696E686120362020203E00072020204A
:100B44002020206C696E6861203720203E00082038
:100B54002020202020206C696E68612038203E000F
:100B640004766172203D2025352E31662020202018
:020B74003E0041
:1003F300C010858110E51024FDF8868318868218C5
:10040300E493A3B42577C208C209C20AC20BC20C83
:10041300C20D790A7700C20EE493A324C6401724C1
:100423000A50157005B50A02D20DD20CFAE775F021
:100433000AA42AF780E2240A2430B46C04D2088088
:10044300D7B46804D20980D0B4730302048BB464B4
:10045300061207650204E7B475061207650205076D
:10046300B4630518E6188017B478030204C6B466AB
:100473000302061BB42E06790B7700809B600612DD
:100483000857020403020871C083C08286F01886ED
:100493008318868218300C19C20DC082C0831208DB
:1004A300D46007A3150AE50A70F4120842D083D07A
:1004B300821208D46006A312085780F5D082D08335
:1004C3000204031204DE20090C1204DE30080612B3
:1004D30004DE1204DE120869020403E6120847E68A
:1004E30018020848ED30E71CD20BE9F42401F92087
:1004F3000912EAF43400FA30080AEBF43400FBEC96
:10050300F43400FC200910300808EB7024EC70214F
:10051300C208EA701CD209E97017200E14300C09C6
:10052300E50A6005150A12084274301208570204DE
:1005330003C082C08312077F300C60790A30081D24
:10054300EB54F0703619EB540F703019EA54F07015
:100553002A19EA540F702419EF54F0701E790520FC
:10056300090BEF540F701419EE54F0700E7903EE6B
:10057300540F700719ED54F0700119E50AA20B9995
:100583004019F50AC003C002C007C006C00512081F
:1005930042D005D006D007D002D003300B19C003D8
:1005A300C002C007C006C005742D120857D005D07D
:1005B30006D007D002D00320094030082CC005C064
:1005C30006C0078A82EBF583120847E583120848C1
:1005D300E582120847E582120848D0E0F582120846
:1005E30047E582D083D08280058D828E83EF120807
:1005F30048E583120847E58380038D82EE1208489D
:10060300E582120847E582120848120869D083D0B0
:1006130082300E0122020403300C0EE50AD3950B3F
:10062300F50A5028750A008023E6547FFA188603DA
:1006330008AE82AF83900D427D07E4932BA3E4932E
:100643003A5003A3DDF48D0B8E828F83C000120713
:1006530047C082C083EFB47E02801940112482FD1B
:10066300C3EA33FAEB33FBEC33FCDDF48006F4240A
:100673007F12087475F01BE4F8FFFEFD900CD6E9B9
:1006830033F9EA33FAEB33FBEC33FC5017E4932DE5
:10069300D4FD7401933ED4FE7402933FD4FF7403DC
:1006A3009338D4F8A3A3A3A3D5F0D4E47C50FBFAE6
:1006B300F9E50B232354FC8883120874ED29D4F540
:1006C3000FEE3AD4F50EEF3BD4F50DE5833CD4F5AC
:1006D3000C92D5D083D082D000120747C000C374D8
:1006E3009E9F5005D00002041BC082120874D08262
:1006F30030D50FE92401F9E43AFAE43BFBE43CFC8E
:1007030040E2D20E120507200C0CE50B600812071D
:10071300377003D50BF4E50B6015742E1208577868
:1007230000D20A08E8120737120848E8B50BF4D0DC
:100733000002040314C31392D5240CF9E720D50156
:10074300C4540F22E618F9E618FC33E933920BFF81
:100753006003430480E618FBE618FA7900C209D265
:100763000822E6F9FD18200912AA01E6F918300853
:100773000AAC02AB01E6FA18E6F91822E975F0644F
:1007830084FE740AC5F084C445F0FD30090122EAF1
:10079300540FF9900B76932DD4FDE94410933ED476
:1007A300FEEAC4540FF9900B96932DD4FDE944103F
:1007B300933ED4FEE94420933400D4FF2008012261
:1007C300EB540FF9900BC6932DD4FDE94410933EDF
:1007D300D4FEE94420933FD4FFE43400FAEBC4543D
:1007E3000FF9900BF6932DD4FDE94410933ED4FEFC
:1007F300E94420933FD4FFE94430933AD4FAEC54CC
:100803000FF9900C367B00120815ECC4540FF990C5
:100813000C86932DD4FDE94410933ED4FEE9442085
:10082300933FD4FFE94430933AD4FAE94440933BED
:10083300D4FB227420300D027430120857150AE5D8
:100843000A70F022C4540F7003300A19D20A24909C
:10085300D43440D4C083C082C000F582120292D047
:1008630000D082D08322200AFC7430020857D010B3
:010873002262
:100B76000056126824803692480460167228844013
:100B860000020507101215172023252830333538A3
:100B96000096928884807672686460565248444013
:100BA60000408122630445862768095091327314F8
:100BB6000000000101020202030304040405050605
:100BC60000367208448016528824609632680440C3
:100BD600005510662176328742985308641975309D
:100BE6000006131926323945525865727885919850
:100BF6000076522804805632088460361288644093
:100C060000857157432814008671574329140086BE
:100C16000004091419242934384348535863687268
:100C26000001020304050607080910111213141522
:100C36000016324864809612284460769208244052
:100C46000072441688603205774921936538108210
:100C56000077553310886644219977543210886599
:100C660000163350678300173450678401183451D7
:100C76000000000000000101010101010202020260
:100C86000056126824803692480460167228844002
:100C96000054096318722781369145005409631878
:100CA60000438730741761044891357922660953E9
:100CB60000683605734210794715845221895826F3
:100CC600000205081013161821242629323437404D
:100CD600000000500000002500005012000025060C
:100CE60000501203002556015012780025063900DF
:100CF600125319005676090028880400144402008D
:100D06000722010004610000523000002615000091
:100D160063070000810300009101000095000000B8
:100D26004800000024000000120000000600000039
:100D36000300000001000000010000007DC5DDC3C6
:0A0D460034C2E0BE38BD86BBE4B93C
:06003500E478FFF6D8FD9F
:100874006040F82582500274FFF582E824F8501E87
:10088400CCCBCAF9E4CC24F85014CBCAF9E4CB2479
:10089400F8500BCAF9E4CA24F8500379002224085A
:1008A4006010F8C3EC13FCEB13FBEA13FAE913F939
:0308B400D8F12256
:100013007900E94400601B7A00900D50780175A0C7
:1000230000E493F2A308B8000205A0D9F4DAF2754C
:02003300A0FF2C
:1008B700E5828511F0A4C582C0F08512F0A4D0F0BE
:0D08C70025F0C5838511F0A42583F583225B
:10003B007800E84400600A790175A000E4F309D860
:10004B00FC7800E84400600C7900900001E4F0A318
:04005B00D8FCD9FAFA
:0D0006007581211208F0E5826003020003FD
:1008D40020F71430F6148883A88220F507E6A8834D
:1008E40075830022E280F7E49322E02275820022DD
:00000001FF
